{
  "contractName": "Transaction",
  "abi": [
    {
      "constant": true,
      "inputs": [],
      "name": "returnPayeeDepositedAmount",
      "outputs": [
        {
          "name": "",
          "type": "uint256"
        }
      ],
      "payable": false,
      "stateMutability": "view",
      "type": "function",
      "signature": "0x2bf9934a"
    },
    {
      "constant": true,
      "inputs": [
        {
          "name": "",
          "type": "address"
        }
      ],
      "name": "bank",
      "outputs": [
        {
          "name": "",
          "type": "uint256"
        }
      ],
      "payable": false,
      "stateMutability": "view",
      "type": "function",
      "signature": "0x529a1baf"
    },
    {
      "inputs": [],
      "payable": false,
      "stateMutability": "nonpayable",
      "type": "constructor",
      "signature": "constructor"
    },
    {
      "constant": false,
      "inputs": [
        {
          "name": "_payee",
          "type": "address"
        }
      ],
      "name": "deposit",
      "outputs": [],
      "payable": true,
      "stateMutability": "payable",
      "type": "function",
      "signature": "0xf340fa01"
    },
    {
      "constant": false,
      "inputs": [
        {
          "name": "_payee",
          "type": "address"
        }
      ],
      "name": "withdraw",
      "outputs": [],
      "payable": false,
      "stateMutability": "nonpayable",
      "type": "function",
      "signature": "0x51cff8d9"
    }
  ],
  "bytecode": "0x608060405234801561001057600080fd5b50336000908152602081905260409020546001556101f8806100336000396000f3fe6080604052600436106100615763ffffffff7c01000000000000000000000000000000000000000000000000000000006000350416632bf9934a811461006657806351cff8d91461008d578063529a1baf146100c2578063f340fa01146100f5575b600080fd5b34801561007257600080fd5b5061007b61011b565b60408051918252519081900360200190f35b34801561009957600080fd5b506100c0600480360360208110156100b057600080fd5b5035600160a060020a0316610121565b005b3480156100ce57600080fd5b5061007b600480360360208110156100e557600080fd5b5035600160a060020a0316610185565b6100c06004803603602081101561010b57600080fd5b5035600160a060020a0316610197565b60015481565b33600160a060020a0382161461013657600080fd5b600160a060020a038116600081815260208190526040808220805490839055905190929183156108fc02918491818181858888f19350505050158015610180573d6000803e3d6000fd5b505050565b60006020819052908152604090205481565b33600160a060020a03821614156101ad57600080fd5b600160a060020a0316600090815260208190526040902080543401905556fea165627a7a72305820b7430936117f0e8442b23623c97af64dcd42527e8c11c54951a2b0695cd5cd750029",
  "source": "pragma solidity >=0.4.21 <0.7.0;\r\n/*\r\npayee and payer\r\npayer : who pay the eth to payee\r\npayee : who get the eth from payer\r\n\r\n*/\r\n\r\ncontract Transaction{\r\n    \r\n    mapping(address => uint256) public bank;\r\n\r\n    uint256 public returnPayeeDepositedAmount;\r\n\r\n    constructor() public{\r\n        returnPayeeDepositedAmount = bank[msg.sender];\r\n    }\r\n    \r\n    function deposit(address _payee) public payable{\r\n        require(msg.sender!=_payee);            // PAYER (MSG.SENDER) IS NOT BACAME ITSELF AS A PAYEE\r\n        bank[_payee] += msg.value;\r\n    }\r\n    \r\n    function withdraw(address payable _payee)  public{\r\n        require(msg.sender==_payee);            // ONLY PAYEE CAN withdraw MONEY FROM HIS ADDRESS, NO ONE CAN withdraw HIS MONEY\r\n        uint256 amount_receive = bank[_payee];\r\n        bank[_payee] = 0;\r\n        _payee.transfer(amount_receive);\r\n    }\r\n    \r\n}",
  "sourcePath": "C:/Users/dheer/OneDrive/Documents/Blockchain Learning/ethereum_metamask_transaction/contracts/Transactions.sol",
  "compiler": {
    "name": "solc",
    "version": "0.5.0+commit.1d4f565a.Emscripten.clang"
  },
  "schemaVersion": "3.0.1",
  "updatedAt": "2020-05-16T06:57:04.634Z",
  "devdoc": {
    "methods": {}
  },
  "userdoc": {
    "methods": {}
  }
}